:020000022000DC
:1070000000000420197202000172020003720200E3
:1070100005720200077202000972020000000000FF
:107020000000000000000000000000000B720200E1
:107030000D720200000000000F72020011720200C7
:1070400091AF02001372020031BD02001372020000
:10705000137202001372020029BC020013720200B4
:107060001372020013720200137202001372020004
:1070700013720200137202001372020013720200F4
:1070800013720200F1F00200137202001372020088
:107090001372020013720200891C030013720200B3
:1070A00013720200137202001372020013720200C4
:1070B00013720200137202000000000000000000C2
:1070C00013720200137202001372020013720200A4
:1070D0001372020013720200137202001372020094
:1070E000137202001372020013720200000000000B
:1070F0000000000013720200000000001372020082
:10710000000000000000000000000000000000007F
:10711000000000000000000000000000000000006F
:10712000000000000000000000000000000000005F
:10713000000000000000000000000000000000004F
:10714000000000000000000000000000000000003F
:10715000000000000000000000000000000000002F
:10716000000000000000000000000000000000001F
:10717000000000000000000000000000000000000F
:1071800000000000000000000000000000000000FF
:1071900000000000000000000000000000000000EF
:1071A00000000000000000000000000000000000DF
:1071B00000000000000000000000000000000000CF
:1071C00000000000000000000000000000000000BF
:1071D00000000000000000000000000000000000AF
:1071E000000000000000000000000000000000009F
:1071F000000000000000000000000000000000008F
:10720000FEE7FEE7FEE7FEE7FEE7FEE7FEE7FEE756
:10721000FEE7FEE700F002B8FFF7FCBF0F484FF0B3
:107220000701884385460E4880470E48016841F4AF
:1072300070010160BFF34F8FBFF36F8F00F01AB87A
:1072400009480A490A4A884207D0521A05D00378E9
:1072500001300B700131013AF9D170470000042070
:10726000F193020088ED00E0D02403000023002009
:10727000002300203A493B480A1A02D007229143D2
:107280008D46394939480A1A06D00722914381F3BD
:107290000988022282F3148835483649364A00F0BC
:1072A00041F836483649374A00F03CF83648374905
:1072B000374A00F037F837483749384A00F032F893
:1072C00037483849384A00F02DF838483849394AA3
:1072D00000F028F838483949394A00F023F839488D
:1072E0003949002200F036F838483949002200F0C8
:1072F00031F838483849091A0AF0F8FF374A9047F8
:1073000025482649884205D00268043003B49047D6
:1073100003BCF7E700208646EC4600200021304AF7
:107320009047FEE7884214D0521A12D003460B430E
:1073300013430324234206D1036804300B60043155
:10734000043AF9D17047037801300B700131013AEA
:10735000F9D17047884202D002700130FAE77047D5
:107360000000042000E003200000042000000420AE
:1073700094480300002300209C240020E4730200B2
:10738000E4730200F4230300944803000023002068
:1073900000230020D0240300D0240300D0240300C5
:1073A000D0240300D0240300D0240300D024030001
:1073B000D024030091480300304A03009C2400209D
:1073C0009C2400209C2400206C2D00206C2D00208B
:1073D0006C2D00206C2D00206C4D002041720200AD
:0473E0001582020010
:1073E40072DF704700BF184673DF704700BF18464E
:1073F40074DF704700BF184675DF704700BF18463A
:1074040076DF704700BF184677DF704700BF184625
:107414007ADF704700BF18467CDF704700BF18460C
:10742400B1DF704700BF184608B5174A174BD31A87
:10743400DB081B0443F003031549184609F0D2FD89
:10744400114A124BD31ADB081B0443F003031149FE
:10745400184609F0C7FD0C4A0C4BD31ADB081B0471
:1074640043F003030C49184609F0BCFD064A074BD8
:10747400D31ADB081B0443F003030849184609F038
:10748400B1FD00BF08BD00BF702403004824030001
:10749400E02403001C2503004C250300842503007D
:1074A40000B583B00190022001F092F800BF03B050
:1074B4005DF804FB00B583B00190032001F088F867
:1074C40000BF03B05DF804FB00B583B00190002059
:1074D40001F07EF800BF03B05DF804FB00B583B093
:1074E4000190012001F074F800BF03B05DF804FBC3
:1074F40000B587B00190019B1A882A4B1A80019B22
:10750400DA7A294B1A70274B1B88284A127852B210
:1075140019460320FFF778FF0590059B0493049B0D
:10752400002B04D0224AF021049806F063FC1E4B81
:107534001B78012B0BD11F4A1F4BD31ADB081B04EA
:1075440043F003031D49184609F04CFD0EE0164BA9
:107554001B78022B0AD1174A174BD31ADB081B04DA
:1075640043F003031649184609F03CFD154B1B78FC
:107574001846FFF73DFF144B184607F0BBF805907B
:10758400059B0393039B002B05D0094A4FF480719C
:10759400039806F02FFC032000F0C0FF00BF07B0E3
:1075A4005DF804FB94230020BE24002082230020E5
:1075B400CC2503007024030048240300582603004C
:1075C40074260300802300202023002000B583B00C
:1075D40001900B4B4FF6FF721A800A4B00221A706F
:1075E400094B1B7883F00103DBB2002B03D000F0BE
:1075F400C9FF00F0F1FD00BF03B05DF804FB00BF5C
:1076040094230020BD240020BC24002070B586B043
:107614000590059B93F901201D4B93F900309A4284
:1076240033D0059B93F90120194B1A70194A1A4B50
:10763400D31ADB081B0443F00303154A92F9002014
:107644001649184609F0DCFC124A134BD31ADB081E
:107654001B0443F00300059BDB781D46059B1B7947
:107664001E46059B5B791A46059B9B791946059B2B
:10767400DB791C46059B1B7A0393029401910092CB
:1076840033462A46064909F0FAFC00BF06B070BD2D
:10769400BF2400207024030048240300A026030014
:1076A400C826030000B58BB001900091019B043300
:1076B4000593019B1B88103B462B00F2008101A21D
:1076C40052F823F0E5770200ED770200F577020027
:1076D400C3780200C3780200C3780200C3780200B2
:1076E400C3780200C3780200C3780200C3780200A2
:1076F400C3780200C3780200C3780200C378020092
:1077040015780200B7780200C3780200C37802003B
:10771400C3780200C3780200C3780200C378020071
:10772400C3780200C3780200C3780200C378020061
:10773400C3780200C3780200C3780200C378020051
:10774400C3780200C3780200C3780200C378020041
:10775400C3780200C3780200C3780200C378020031
:10776400C3780200C3780200C3780200C378020021
:1077740091780200C3780200C3780200C378020043
:10778400C3780200C3780200C3780200C378020001
:10779400C3780200C3780200C3780200C3780200F1
:1077A400C3780200C3780200C3780200C3780200E1
:1077B400C3780200C3780200C3780200C3780200D1
:1077C400C3780200C3780200C3780200697802001B
:1077D400C3780200C3780200C378020091780200E3
:1077E4000598FFF785FE6FE00598FFF7EFFE6BE065
:1077F400374A384BD31ADB081B0443F00300059BBC
:107804009B881A46059BDB88334909F00AFC5BE038
:10781400059A03AB043292E8030083E80300059B56
:107824001B8803AA11461846FFF7E6FD0990099B39
:107834000893089B002B05D0284A40F25111089860
:1078440006F0D8FA224A234BD31ADB081B0443F070
:107854000300059B9B881A46059BDB88204909F099
:10786400E0FB31E0059B1888002300220021FFF78C
:10787400D7FD0990099B0693069B002B21D0174A3C
:107884004FF4AE71069806F0B5FA1AE0154B1B8852
:1078940013211846FFF7B4FD0990099B0793079B32
:1078A400002B10D00D4A40F26511079806F0A2FA99
:1078B40009E0059B04331846FFF7A8FE04E000BF67
:1078C40002E000BF00E000BF00BF0BB05DF804FBA6
:1078D4007024030048240300EC260300CC25030095
:1078E400182703009423002000B583B0204B1B7895
:1078F4001846FFF77DFD1F4B1B884FF6FF7293421E
:1079040031D01D4A1D4BD31ADB081B0443F003037B
:107914001B49184609F066FB1A4B01221A701A4BD0
:1079240001221A70134B1B8813211846FFF768FDB8
:107934000190019B002B11D00F4A104BD31ADB0886
:107944001B0443F00103019A1049184609F058FB3F
:107954000C4B00221A700C4B00221A7000BF0A4B09
:107964001B78002BFBD100BF03B05DF804FB00BF04
:107974008023002094230020702403004824030063
:1079840050270300BC240020BD24002064270300EA
:1079940000B59DB010AB00221A605A609A60DA609C
:1079A4001A615A6101238DF840304FF49673129393
:1079B40001238DF8553001238DF856309DF857304A
:1079C40043F010038DF8573001AB3C2200211846D8
:1079D4000AF0DEFC02238DF8043006238DF807300C
:1079E4006A4B1B78002B5BD1694A6A4BD31ADB08BC
:1079F4001B0443F003036849184609F0F3FA012312
:107A04008DF8553001238DF85630644B1B78002BCC
:107A14000ED15F4A5F4BD31ADB081B0443F0030308
:107A24005F49184609F0DEFA01238DF8403011E071
:107A34005A4B1B78012B0DD1554A564BD31ADB08F0
:107A44001B0443F003035749184609F0CBFA0423F7
:107A54008DF84030544B196801AB544A184602F073
:107A64004CFA1B901B9B1793179B002B05D0504A75
:107A74004FF4E771179806F0BDF910AB1A464A495E
:107A84004C48FFF7ADFC1B901B9B1693169B002BD9
:107A940077D0474A40F2D111169806F0ABF970E05E
:107AA4003A4B1B78012B6CD1394A3A4BD31ADB0879
:107AB4001B0443F003034049184609F093FA0423D6
:107AC4008DF8553004238DF85630344B1B78002B39
:107AD40033D12F4A2F4BD31ADB081B0443F0030383
:107AE4003649184609F07EFA06238DF840302E4BAD
:107AF400196801AB2D4A184602F0FFF91B901B9B35
:107B04001993199B002B05D0294A40F2E1111998C9
:107B140006F070F910AB1A4623492648FFF760FCBB
:107B24001B901B9B1893189B002B2AD0204A4FF4C0
:107B3400F271189806F05EF923E0184B1B78012BBC
:107B44001FD1134A134BD31ADB081B0443F003035E
:107B54001B49184609F046FA08238DF8403010AB4B
:107B64001A4600211348FFF73BFC1B901B9B1A93FA
:107B74001A9B002B05D00E4A4FF4F8711A9806F0A0
:107B840039F900BF1DB05DF804FB00BF812300205C
:107B94007024030048240300A0270300BB24002012
:107BA400C0270300FC27030084230020882300202F
:107BB400CC250300802300203C2803006428030014
:107BC400AC28030000B585B0234A244BD31ADB0844
:107BD4001B0443F003032249184609F003FA214B1E
:107BE4001B781946204B1B785BB21A460120FFF71D
:107BF4000BFC0390039B0293029B002B05D01B4AB2
:107C040040F2FD11029806F0F5F8134A134BD31A0B
:107C1400DB081B0443F00303134A12781449184683
:107C240009F0EEF90F4B1B7801211846FFF7DCFB36
:107C34000390039B0193019B002B05D00B4A40F258
:107C44000221019806F0D6F80A4B00221A7000BFF0
:107C540005B05DF804FB00BF702403004824030052
:107C6400F42803008023002082230020CC25030075
:107C74000C290300BC24002000B583B04FF48041DC
:107C8400002008F0D9FE0190019B0093009B002B7B
:107C940005D0064A4FF40371009806F0ABF808F0DB
:107CA40061FE00BF03B05DF804FB00BFCC250300F8
:107CB40000B587B006F04EFC0590059B0493049B29
:107CC400002B05D0264A4FF40771049806F092F869
:107CD400244A0121244806F07BFC0590059B03936C
:107CE400039B002B05D01E4A4FF40871039806F03D
:107CF40081F81E4A01211E4806F06AFC0590059B86
:107D04000293029B002B05D0154A40F223210298CE
:107D140006F070F8174A0121174806F059FC05903F
:107D2400059B0193019B002B05D00D4A40F22621AF
:107D3400019806F05FF8114A0121114806F048FC49
:107D44000590059B0093009B002B05D0044A40F24C
:107D54002921009806F04EF800BF07B05DF804FB37
:107D6400CC250300A5740200D0240300B9740200DA
:107D7400D4240300CD740200D8240300E17402006B
:107D8400DC24030000B587B009F0FAFE0590059BDA
:107D94000493049B002B05D0164A40F23521049825
:107DA40006F028F80023019301AB1946012009F0DD
:107DB4009FFF0590059B0393039B002B05D00D4A61
:107DC40040F23B21039806F015F801AB18460AF07F
:107DD40083F80590059B0293029B002B05D0054A6E
:107DE40040F23F21029806F005F800BF07B05DF8A5
:107DF40004FB00BFCC25030000B585B09DF800301E
:107E0400012262F303038DF800309DF80030012253
:107E140062F307138DF800306B460F2211491846A0
:107E2400FFF7FAFA0390039B0293029B002B05D001
:107E34000D4A40F25521029805F0DCFF0B48FFF78C
:107E4400E7FA0390039B0193019B002B05D0064A9C
:107E54004FF41671019805F0CDFF00BF05B05DF831
:107E640004FB00BF28290300CC250300982300202D
:107E740000B583B008F028FA0190019B0093009BA1
:107E8400002B05D0044A40F26521009805F0B2FFAA
:107E940000BF03B05DF804FBCC25030008B509F06E
:107EA40019F9034683F00103DBB2002B01D008F07B
:107EB40021FA00BF08BD000000B587B003468DF865
:107EC40007301D4A9DF8073013701B4B1B78002B9D
:107ED40018D0082B2BD1012000F03AFB174B0022BD
:107EE4004FF44051184606F0ADFB0590059B0493F2
:107EF400049B002B1AD0124A40F28521049805F005
:107F040079FF13E00D4B184606F0F4FB0590059B32
:107F14000393039B002B05D0094A40F28F21039859
:107F240005F068FF012000F0F9FA00E000BF00BF8F
:107F340007B05DF804FB00BF82230020602300200B
:107F4400CC25030000B583B00B4B1B78002B02D06B
:107F5400082B04D007E008238DF8073003E0002342
:107F64008DF8073000BF9DF807301846FFF7A4FFCF
:107F740000BF03B05DF804FB8223002000B587B086
:107F840003468DF807301C4A9DF8073013709DF89E
:107F94000730002B02D0012B14D028E0174B00220D
:107FA4004FF44051184606F04DFB0590059B039392
:107FB400039B002B1AD0124A40F2C521039805F006
:107FC40019FF13E00D4B184606F094FB0590059B32
:107FD4000493049B002B05D0094A40F2CD21049858
:107FE40005F008FF002000F099FA00E000BF00BF90
:107FF40007B05DF804FB00BF81230020402300206C
:10800400CC25030000B583B00B4B1B78002B05D0A7
:10801400012B07D100238DF8073003E001238DF8ED
:10802400073000BF9DF807301846FFF7A7FF00BFD1
:1080340003B05DF804FB00BF8123002000B589B0C4
:1080440003468DF80730314A9DF80730137003203A
:1080540000F07EFA9DF80730002B28D0012B50D178
:108064002B4B184606F046FB0790079B0693069B8E
:10807400002B05D0274A4FF44071069805F0BAFE4C
:10808400032000F065FA244B002240F6CD41184647
:1080940006F0D8FA0790079B0593059B002B2DD07B
:1080A4001C4A4FF44171059805F0A4FE26E01A4BD2
:1080B400184606F01FFB0790079B0493049B002BB4
:1080C40005D0144A4FF44371049805F093FE02203E
:1080D40000F03EFA0E4B002240F6CD41184606F061
:1080E400B1FA0790079B0393039B002B08D0094A1E
:1080F40040F21131039805F07DFE01E000BF00E07D
:1081040000BF00BF09B05DF804FB00BFBB24002022
:1081140020230020CC2503000023002000B583B0D9
:108124000B4B1B78002B02D0012B04D007E001235A
:108134008DF8073003E000238DF8073000BF9DF869
:1081440007301846FFF77AFF00BF03B05DF804FB61
:10815400BB24002000B583B003468DF807309DF89A
:108164000730112B1AD09DF80730102B0CD0102B90
:108174000DDC0E2B02D00F2B03D008E0FFF742FFDB
:1081840006E0FFF7DFFE03E0FFF7C8FF00E000BFF3
:10819400FFF7AAFBFFF7FCFBFFF714FD00BF03B0DA
:1081A4005DF804FB00B583B00949032000F084FEA8
:1081B4000190019B0093009B002B05D0054A4FF4CE
:1081C4005B71009805F016FE00BF03B05DF804FB78
:1081D40059810200CC25030008B50A4B1B781846C8
:1081E400FFF7CCFE084B1B781846FFF727FF074B19
:1081F4001B781846FFF760FEFFF7CAFBFFF7E2FCA7
:1082040000BF08BD81230020BB240020822300205E
:1082140008B5FFF731FDFFF74BFDFFF7C3FFFFF78D
:1082240027FEFFF7AFFDFFF7E7FD094A094BD31A15
:10823400DB081B0443F003030749184608F0D2FE89
:10824400FFF7F2F8FFF7C8FFFFF728FEFCE700BFCF
:1082540070240300482403003829030000B583B0C8
:108264000190019B1B68184600F002F90346002B9D
:1082740004D10B494FF4F67006F046FF019B1B68CE
:108284001F2B02D84FF0A04306E0019B1B6803F0AC
:108294001F02019B1A60034B184603B05DF804FBF0
:1082A400582903000003005000B585B0019008462A
:1082B40011461A4603468DF803300B468DF80230FA
:1082C40013468DF8013001AB1846FFF7C7FF039042
:1082D4009DF803209DF802305B001A439DF801309D
:1082E4009B001A439DF818301B0242EA03019DF8D3
:1082F4001C301B04019A1943039B02F5E07243F8F6
:10830400221000BF05B05DF804FB00B585B00390F2
:1083140000230193002300930023012201210398E9
:10832400FFF7C2FF00BF05B05DF804FB00B585B0E0
:1083340003900B468DF80B309DF80B300022019210
:1083440000220092002200210398FFF7ADFF00BF36
:1083540005B05DF804FB00B585B0019001AB18468B
:10836400FFF77CFF0390019B012202FA03F31946F5
:10837400039800F069F800BF05B05DF804FB00B590
:1083840085B0019001AB1846FFF768FF0390019B8D
:10839400012202FA03F31946039800F05FF800BFC4
:1083A40005B05DF804FB00B585B0019001AB18463B
:1083B400FFF754FF0390039BD3F804350293029B09
:1083C400DA43019B012101FA03F31A40039BC3F82A
:1083D4000825019B01229A40029B1A40039BC3F883
:1083E4000C2500BF05B05DF804FB00B583B0019017
:1083F4000091009B002B03D10198FFF7C0FF02E01E
:108404000198FFF7A8FF00BF03B05DF804FB00B5B7
:1084140085B0019001AB1846FFF720FF0390039845
:1084240000F00AF80246019B22FA03F303F0010369
:10843400184605B05DF804FB82B00190019BD3F8A7
:108444000435184602B0704782B001900091019B38
:10845400009AC3F8082500BF02B0704782B00190AB
:108464000091019B009AC3F80C2500BF02B070472D
:1084740084B00190019B5B09029300230393029B48
:10848400002B03D0029B012B04D007E04FF0FF33F5
:10849400039303E04FF6FF73039300BF019B03F0C4
:1084A4001F030193039A019B22FA03F303F00103D0
:1084B400002B14BF01230023DBB2184604B070471D
:1084C40000B585B00190019B032B03D911493A20D3
:1084D40006F01AFE104A019B13441B781846FFF756
:1084E40096FF0346002B14BF012300238DF80F30A1
:1084F4009DF80F30002B14BF01230023DBB283F05F
:108504000103DBB203F00103DBB2184605B05DF8EA
:1085140004FB00BF88290300002A030000B583B0D0
:108524000190019B032B03D90749412006F0ECFD80
:10853400064A019B13441B7800211846FFF755FF98
:1085440000BF03B05DF804FB88290300002A030080
:1085540000B583B00190019B032B03D90749472041
:1085640006F0D2FD064A019B13441B7801211846EC
:10857400FFF73BFF00BF03B05DF804FB882903004D
:10858400002A030000B583B00023019305E001989D
:10859400FFF7DEFF019B01330193019B032BF6D907
:1085A40000BF00BF03B05DF804FB00B583B0002337
:1085B400019305E00198FFF7B1FF019B013301939B
:1085C400019B032BF6D900BF00BF03B05DF804FB89
:1085D40000B583B00190019B032B03D907495F20A9
:1085E40006F092FD064A019B13441B781846FFF7D8
:1085F400DAFE00BF03B05DF804FB00BF8829030066
:10860400002A030000B583B00023019309E0094A5E
:10861400019B13441B781846FFF777FE019B013337
:108624000193019B032BF2D9FFF7ACFF00BF03B00A
:108634005DF804FB002A030000B583B00023019316
:108644000AE0094A019B13441B7803211846FFF7EB
:108654006DFE019B01330193019B032BF1D900BFF4
:1086640000BF03B05DF804FB042A030084B001904A
:108674004FF0FF330293002303930DE00A4A039B58
:1086840013441B781A46019B934202D1039B029325
:1086940005E0039B01330393039B032BEED9029B59
:1086A400184604B0704700BF042A030000B583B025
:1086B4000190019B03F00103002B01D0FFF7A2FFFF
:1086C400019B03F00203002B01D0FFF7B5FF00BFAD
:1086D40003B05DF804FB00B583B001220021002043
:1086E40000F058FC0190019B002B04D0019B072B48
:1086F40001D0019B1CE007220221012000F04AFC6A
:108704000190019B002B04D0019B072B01D0019BFE
:108714000EE004220221002000F03CFC0190019BA9
:10872400002B04D0019B072B01D0019B00E0002308
:10873400184603B05DF804FB00B583B001220221A2
:10874400002000F027FC0190019B002B04D0019B2A
:10875400072B01D0019B1CE007220221012000F01D
:1087640019FC0190019B002B04D0019B072B01D025
:10877400019B0EE00A220021002000F00BFC019076
:10878400019B002B04D0019B072B01D0019B00E02F
:108794000023184603B05DF804FB000000B585B063
:1087A40001900091019B1B88102B02D0112B18D033
:1087B4002FE01A4B1B68002B0DD1FFF78CFF0390A1
:1087C400039B002B07D0164B1B68002B03D0144BC4
:1087D4001B6803989847114B1B6801330F4A1360B9
:1087E40017E00E4B1B68013B0C4A13600B4B1B68D4
:1087F400002B0DD1FFF7A0FF0390039B002B07D0A4
:10880400074B1B68002B03D0054B1B680398984744
:1088140000BF00BF05B05DF804FB00BFC424002006
:10882400C024002000B587B003460A468DF80730FF
:1088340013468DF8063000238DF817300023049377
:108844009DF807301846FFF711FF0490049B032B93
:1088540062D89DF80630022B52D0022B5CDC002B30
:1088640031D0012B58D13549049A13465B00134487
:108874000B441B788DF817303049049A13465B007B
:1088840013440B4401331B78002B0ED02C4B2D4A80
:108894004FF48041184605F0D5FE0390039B002B4E
:1088A40003D1284A9DF8073013702449049A1346CB
:1088B4005B0013440B4402331978234A049B13448A
:1088C4000A461A7028E01E4B184605F013FF1E4A8C
:1088D400049B134419781948049A13465B00134403
:1088E400034402331B78994215D11449049A134660
:1088F4005B0013440B4402331B788DF817300AE0F5
:108904000E49049A13465B0013440B4401331B784D
:108914008DF8173000E000BF9DF81730002B09D008
:108924000A4B1B68002B05D0084B1B689DF81720C9
:108934001046984700BF07B05DF804FBD824002018
:10894400E0230020E4240020E8240020D424002094
:1089540000B583B00190019B1B7802211846FFF7F4
:1089640061FF00BF03B05DF804FB000000B583B0F5
:108974000C4B1B78002B0FD00023019308E0019BC4
:10898400022B02D00198FFF7E3FD019B0133019311
:10899400019B032BF3D901E0FFF7F4FD00BF03B003
:1089A4005DF804FBD02400202DE9D04F92B003469B
:1089B4008DF83F300023119300231093CC4B1B7888
:1089C400002B04D0CA4A00231370FFF7CFFF9DF891
:1089D4003F30172B00F23F8201A252F823F000BF70
:1089E400458A02005D8A02005D8A0200F98A02005B
:1089F400958B0200118C0200A58C0200C58C02002C
:108A0400D58C0200018D02001F8D02003D8D0200F5
:108A14005B8D0200698D0200698D0200698D020080
:108A2400698D0200698D0200FD8D02000B8E02002B
:108A34001F8E0200338E02004D8E02004D8E020006
:108A4400FFF794FFAB4B184605F054FE1190AA4A69
:108A54009DF83F301370FFE10020FFF731FD03461E
:108A6400002B0DD00020FFF773FD9DF83F30022B43
:108A740002D14FF4E16301E04FF47A6310930BE009
:108A84000020FFF74BFD9DF83F30022B01D1C82396
:108A940001E04FF4C8731093974A9DF83F30137068
:108AA400944C109B0022009301924FF000024FF06F
:108AB4000003DDE900673946CB03314643EA5143FD
:108AC4003146CA0312F57A71029143F1000303930C
:108AD4004FF4FA624FF00003DDE9020109F06CFB88
:108AE40002460B46134600221946204605F0AAFD0D
:108AF4001190B1E10020FFF7E3FC0346002B0DD0F9
:108B04000020FFF725FD9DF83F30032B02D14FF4E1
:108B1400487301E04FF47A6310930BE00020FFF7F1
:108B2400FDFC9DF83F30032B01D1C82301E04FF435
:108B3400C8731093704A9DF83F3013706D4C109BAE
:108B44000022049305924FF000024FF00003DDE988
:108B540004673946CB03314643EA51433146CA03DD
:108B640012F57A71069143F1000307934FF4FA6208
:108B74004FF00003DDE9060109F01EFB02460B4637
:108B8400134600221946204605F05CFD119063E16E
:108B94000020FFF795FC0346002B06D00020FFF7CA
:108BA400D7FC4FF47A63109305E00020FFF7B6FC7E
:108BB4004FF4C8731093504A9DF83F3013704D4CD6
:108BC400109B00229A4693464FF000024FF0000398
:108BD4004FEACB3343EA5A434FEACA3212F57A7169
:108BE400089143F1000309934FF4FA624FF0000334
:108BF400DDE9080109F0E0FA02460B4613460022BB
:108C04001946204605F01EFD119025E10020FFF7CE
:108C140057FC0346002B0CD00020FFF799FC9DF86D
:108C24003F30052B01D1C82301E04FF47A63109340
:108C34000BE00020FFF772FC9DF83F30052B01D1BB
:108C4400C82301E04FF4C87310932B4A9DF83F30BA
:108C54001370284C109B0022984691464FF0000256
:108C64004FF000034FEAC93343EA58434FEAC8328E
:108C740012F57A710A9143F100030B934FF4FA62EF
:108C84004FF00003DDE90A0109F096FA02460B46AB
:108C9400134600221946204605F0D4FC1190DBE06F
:108CA4000020FFF795FC144A9DF83F301370114BD8
:108CB400002240F26661184605F0C4FC1190CBE036
:108CC4000020FFF72BFC0C4A9DF83F301370C3E0E3
:108CD400074B01221A700120FFF77AFC054B002292
:108CE40040F26661184605F0ADFC1190B4E000BF97
:108CF400C9240020A0230020C8240020594B0122AD
:108D04001A700120FFF764FC574B00224FF4005106
:108D1400184605F097FC11909EE0524B01221A7000
:108D24000120FFF755FC504B002240F266611846C3
:108D340005F088FC11908FE04A4B01221A70012043
:108D4400FFF746FC484B00224FF40051184605F04B
:108D540079FC119080E0FFF728FC444A9DF83F30ED
:108D6400137079E0424B184605F0C4FC11909DF84D
:108D74003F30C3F111031093109B002B35D0119B8E
:108D8400002B32D1109B012B28D9394C109B9BB25C
:108D94001A46C82302FB03F3DA171E4617464FF0A0
:108DA40000024FF00003FB0343EA5643F20312F5BB
:108DB4007A710C9143F100030D934FF4FA624FF072
:108DC4000003DDE90C0109F0F7F902460B461346EE
:108DD40000221946204605F035FC11900220FFF7C9
:108DE4009DFB244B01221A7036E00220FFF7B0FBF2
:108DF400204B00221A702FE0FFF7B8FD1B4A9DF8A4
:108E04003F30137028E0FFF7B1FD0020FFF786FB29
:108E1400164A9DF83F3013701EE0FFF7A7FD0120AE
:108E2400FFF77CFB114A9DF83F30137014E0FFF705
:108E34009DFD0020FFF772FB0120FFF76FFB0B4A3B
:108E44009DF83F30137007E0FFF7AFFB074A9DF82A
:108E54003F30137000E000BF119B184612B0BDE80C
:108E6400D08F00BFC9240020A0230020C8240020E4
:108E7400C0230020D024002000B583B00190074B0C
:108E84001B6803F00103002B04D0054B1B78184624
:108E9400FFF78AFD00BF03B05DF804FBCC2400207B
:108EA400C824002000B583B001900220FFF790FB96
:108EB40000BF03B05DF804FB00B585B001900091DC
:108EC400002303932A4A019B13602A4A009B1360E0
:108ED400019B03F00203002B2AD00023029308E035
:108EE40001220121029800F055F80390029B0133FE
:108EF4000293029B032B02D8039B002BF0D0039B0D
:108F0400002B06D140F2333204211B4804F072FED8
:108F14000390039B002B02D104F0F4FE0390039B07
:108F2400002B05D1154A0021154805F051FB03908B
:108F3400019B03F00103002B14D00120FFF7B6FBC3
:108F4400039B002B05D10F4A00210F4805F040FB7D
:108F54000390039B002B05D10C4A01210C4805F01A
:108F640037FB0390039B184605B05DF804FB00BF74
:108F7400CC240020D4240020142A030055890200A4
:108F8400102A03007D8E0200082A0300A98E020025
:108F94000C2A030084B001900B468DF8033013466D
:108FA4008DF8023000230393019B032B3CD89DF8DA
:108FB4000230012B0BD19DF80330012B04D1019B0E
:108FC400DBB20E33DBB200E000238DF802309DF8F3
:108FD4000330022B0FD0022B23DC002B16D0012BE5
:108FE4001FD11449019A13465B0013440B449DF8A6
:108FF40002201A701AE00F49019A13465B001344C9
:109004000B4401339DF802201A700FE00949019ABC
:1090140013465B0013440B4402339DF802201A707C
:1090240004E00723039301E007230393039B1846FB
:1090340004B07047D8240020BFF34F8F00BF064B05
:10904400DB6803F4E0620449044B1343CB60BFF3D1
:109054004F8F00BF00BFFDE700ED00E00400FA05FC
:1090640082B0164B1B680193154B1B680093019B40
:10907400082B1FD1009B052B1AD801A252F823F00C
:109084009D900200A1900200A5900200A990020008
:10909400AD900200B190020001230CE001230AE02C
:1090A400012308E0012306E0012304E0012302E098
:1090B400012300E00023184602B07047300100107D
:1090C4003401001082B0164B1B680193154B1B68CA
:1090D4000093019B082B1FD1009B052B1AD801A2DA
:1090E40052F823F001910200059102000991020057
:1090F4000D910200119102001591020001230CE070
:1091040001230AE0012308E0012306E0012304E02F
:10911400012302E0012300E00023184602B0704757
:10912400300100103401001082B0164B1B6801930B
:10913400154B1B680093019B082B1FD1009B052B2B
:109144001AD801A252F823F0659102006991020035
:109154006D910200719102007591020079910200F3
:1091640001230CE000230AE0002308E0002306E0CA
:10917400002304E0002302E0002300E0002318465B
:1091840002B07047300100103401001082B0164B59
:109194001B680193154B1B680093019B082B1FD17F
:1091A400009B052B1AD801A252F823F0C9910200A2
:1091B400CD910200D1910200D5910200D991020013
:1091C400DD91020001230CE000230AE0002308E003
:1091D400002306E0002304E0002302E0002300E073
:1091E4000023184602B0704730010010340100100B
:1091F40082B0164B1B680193154B1B680093019BAF
:10920400082B1FD1009B052B1AD801A252F823F07A
:109214002D9202003192020035920200399202002E
:109224003D9202004192020001230CE000230AE077
:10923400002308E0002306E0002304E0002302E00A
:10924400002300E00023184602B0704730010010EC
:109254003401001082B0164B1B680193154B1B6838
:109264000093019B082B1FD1009B052B1AD801A248
:1092740052F823F091920200959202009992020012
:109284009D920200A1920200A592020001230CE02B
:1092940000230AE0002308E0002306E0002304E0A2
:1092A400002302E0002300E00023184602B07047C8
:1092B400300100103401001082B0164B1B6801937A
:1092C400154B1B680093019B082B1FD1009B052B9A
:1092D4001AD801A252F823F0F5920200F992020082
:1092E400FD9202000193020005930200099302001B
:1092F40001230CE001230AE0012308E0012306E036
:10930400012304E0012302E0012300E000231846C6
:1093140002B07047300100103401001082B0164BC7
:109324001B680193154B1B680093019B082B1FD1ED
:10933400009B052B1AD801A252F823F0599302007E
:109344005D93020061930200659302006993020039
:109354006D93020000230CE000230AE0002308E0E0
:10936400002306E0012304E0012302E0012300E0DE
:109374000023184602B07047300100103401001079
:1093840008B5FFF7CBFF0346002B07D04FF010239F
:109394004FF08042D3F80832C2F8583500BF08BDF8
:1093A40000BF044BD3F80034002BFAD000BF00BF39
:1093B400704700BF00E0014000B583B00190054A4A
:1093C400019BC2F80435FFF7EBFF00BF03B05DF863
:1093D40004FB00BF00E00140024B034A1A6000BFD7
:1093E400704700BF002400200090D00308B5FFF7A9
:1093F40037FE0346002B0ED04FF080430022C3F803
:109404000C214FF080430022C3F810214FF0804319
:109414000022C3F83825FFF755FE0346002B76D00B
:109424004FF08053734AD3F80434C2F820354FF018
:109434008053704AD3F80834C2F824354FF080536F
:109444006C4AD3F80C34C2F828354FF08053694A7B
:10945400D3F81034C2F82C354FF08053654AD3F852
:109464001434C2F830354FF08053624AD3F81834BC
:10947400C2F834354FF080535E4AD3F81C34C2F836
:1094840040354FF080535B4AD3F82034C2F844355A
:109494004FF08053574AD3F82434C2F848354FF07C
:1094A4008053544AD3F82834C2F84C354FF08053D3
:1094B400504AD3F82C34C2F850354FF080534D4AFB
:1094C400D3F83034C2F854354FF08053494AD3F8B6
:1094D4003434C2F860354FF08053464AD3F83834F8
:1094E400C2F864354FF08053424AD3F83C34C2F892
:1094F40068354FF080533F4AD3F84034C2F86C3596
:109504004FF080533B4AD3F84434C2F87035FFF728
:109514000BFE0346002B02D0374B384A1A60FFF784
:1095240035FE0346002B03D0354BFB22C3F8182528
:10953400FFF75EFE0346002B0AD0324B1B6823F074
:109544000F02314B1B6803F00F032E4913430B60CA
:10955400FFF780FE0346002B03D02C4B4FF4007220
:109564001A60FFF7A9FE0346002B0DD04FF080438D
:10957400D3F8003403F00103002B05D04FF08043EF
:109584006FF00102C3F80024214BD3F88830204A3D
:1095940043F47003C2F88830BFF34F8F00BFBFF3AA
:1095A4006F8F00BFFFF7ECFE4FF01023D3F80032AB
:1095B400002B05DB4FF01023D3F80432002B15DA0F
:1095C4000120FFF7F9FE4FF010231222C3F8002206
:1095D400FFF7E6FE4FF010231222C3F80422FFF730
:1095E400DFFE0020FFF7E8FEFFF726FDFFF7F4FE9D
:1095F40000BF08BD00C000408C56004048810300F5
:1096040000F00040E40E0040580200104096024072
:1096140000ED00E06DDF704700BF184679DF70474A
:1096240000BF18467DDF704700BF184664DF7047EF
:1096340000BF184682B003460091ADF80630BDF86D
:109644000630DAB2009B1A70BDF806301B0A9AB2D3
:10965400009B0133D2B21A700223184602B070473D
:1096640000B589B0039002911346ADF80630029B11
:109674001B8803F10902BDF806309A4201D90C2374
:1096840053E004AB1846FFF7C5FF0790079B06930A
:10969400069B002B01D0069B47E0029B1B881A46C1
:1096A400039B134408221A70029B1B8801339AB24D
:1096B400029B1A80029B1B881A46039B13441B229D
:1096C4001A70029B1B8801339AB2029B1A80029B78
:1096D4001B881A46039B981804AB013306221946CB
:1096E40008F024FE029B1B8806339AB2029B1A8060
:1096F4009DF8103023F00103DBB2002B07D1029B4D
:109704001B881A46039B134400221A7006E0029B2E
:109714001B881A46039B134401221A70029B1B8860
:1097240001339AB2029B1A800023184609B05DF8EF
:1097340004FB00B589B0039002910192ADF80230A8
:10974400039B1B78012B05D1039B5B78002B01D174
:10975400072391E0019B1B889A1CBDF802309A42B2
:109764000ED8039B1B78012B0CD1019B1B881A4636
:10977400039B5B7813449A1CBDF802309A4201D9CA
:109784000C2379E0019B1B88BDF80220D31A9BB2FD
:10979400023BADF81C30BDF81C30ADF81230019B13
:1097A4001B880233029A13440DF112021146184623
:1097B400FFF738FF0690069B0593059B002B01D00D
:1097C400059B59E0039B1B78022B06D0039B5B7817
:1097D4001A46BDF812309A4209D3BDF81230BDF8CA
:1097E4001C209A4203D309238DF81F3016E0082366
:1097F4008DF81F30039B1B78012B0BD1039B5B78E7
:109804001A46BDF81C30934204D3039B5B78ADF831
:10981400123003E0BDF81C30ADF81230BDF8123040
:10982400FE2B01D90C2327E0BDF81230DAB2019BDC
:109834001B881946029B0B440132D2B21A70019B59
:109844001B8801339AB2019B1A80019B1B881A461C
:10985400029B13449DF81F201A70019B1B8801333F
:109864009AB2019B1A80019B1A88BDF812301344E6
:109874009AB2019B1A800023184609B05DF804FBD4
:1098840000B589B0039002911346ADF80630029BEF
:109894001B881A1DBDF806309A4201D90C233AE000
:1098A4000DF116031846FFF7B9FE0790079B0693C0
:1098B400069B002B01D0069B2DE0029B1B881A46B9
:1098C400039B134403221A70029B1B8801339AB230
:1098D400029B1A80029B1B881A46039B134419227D
:1098E4001A70029B1B8801339AB2029B1A80BDF83E
:1098F4001620029B1B881946039B0B4419461046ED
:10990400FFF798FE03461A46029B1B8813449AB23B
:10991400029B1A800023184609B05DF804FB84B04A
:10992400029101921A4603468DF80F301346ADF8A2
:109934000C30019B1B88DA1CBDF80C309A4201D90B
:109944000C2328E0019B1B881A46029B1344022225
:109954001A70019B1B8801339AB2019B1A80019BE8
:109964001B881A46029B134401221A70019B1B8810
:1099740001339AB2019B1A80019B1B881A46029BF1
:1099840013449DF80F201A70019B1B8801339AB26F
:10999400019B1A800023184604B0704784B00291DA
:1099A40001921A4603468DF80F301346ADF80C3079
:1099B400019B1B88DA1CBDF80C309A4201D90C2398
:1099C40028E0019B1B881A46029B134402221A704A
:1099D400019B1B8801339AB2019B1A80019B1B884F
:1099E4001A46029B13440A221A70019B1B880133F6
:1099F4009AB2019B1A80019B1B881A46029B13444E
:109A04009DF80F201A70019B1B8801339AB2019BA9
:109A14001A800023184604B0704700B58FB0039035
:109A240001930B468DF80B3013468DF80A30002352
:109A34008DF83330109B1B88ADF8303000230D9324
:109A440070E0039B5A680D9B9B001A4405AB106899
:109A540018600DF11B0105AB00221846FFF7E6FD67
:109A64000A900A9B0993099B002B01D0099B7BE078
:109A74009DF81B309DF80A209A4250D19DF833304E
:109A8400002B01D0002300E002238DF82330109B2B
:109A94001B881A469DF81B301A449DF823301A443B
:109AA400BDF844309A4201DD0C235DE09DF833306B
:109AB40083F00103DBB2002B16D0109B1B8801330B
:109AC4009AB2109B1A80109B1B881A46019B134460
:109AD4009DF80B201A70109B1B8801339AB2109BBF
:109AE4001A8001238DF83330109B1B881A46019B82
:109AF4001A440DF11B0105AB1846FFF797FD0A90B8
:109B04000A9B0793079B002B01D0079B2CE0109B1B
:109B14001B889DF81B2013449AB2109B1A800D9B3E
:109B240001330D93039B1B881A460D9B934288DBDC
:109B34009DF83330002B16D0109B1A88BDF83030B6
:109B4400D31A9BB2013BADF82E30BDF82E30FF2B5B
:109B540001D90C2308E0BDF83030019A1344BDF854
:109B64002E20D2B21A70002318460FB05DF804FB01
:109B740000B58BB0059003930B468DF81330134654
:109B84008DF812309DF81310BDF8343001930C9BFE
:109B94000093039B02220598FFF73FFF0990099B5E
:109BA4000893089B002B01D0089B14E09DF8121029
:109BB400BDF8343001930C9B0093039B102205984D
:109BC400FFF72BFF0990099B0793079B002B01D0FC
:109BD400079B00E0002318460BB05DF804FB82B03D
:109BE4000190019B1B88052B0AD9019B1B88B3F5A7
:109BF400486F07D9019B1B884FF6FF72934201D02F
:109C0400072325E0019B5B88052B0AD9019B5B8810
:109C1400B3F5486F07D9019B5B884FF6FF729342F7
:109C240001D0072314E0019B1B884FF6FF72934277
:109C34000DD0019B5B884FF6FF72934207D0019BC6
:109C44001A88019B5B889A4201D9072300E000230C
:109C5400184602B0704700B587B003900291019294
:109C6400ADF80230019B1B889A1DBDF802309A4260
:109C740001D90C234BE00398FFF7B1FF0590059B36
:109C84000493049B002B01D0049B40E0019B1B88A0
:109C94001A46029B134405221A70019B1B88013348
:109CA4009AB2019B1A80019B1B881A46029B13449B
:109CB40012221A70019B1B8801339AB2019B1A80ED
:109CC400039B1A88019B1B881946029B0B44194667
:109CD4001046FFF7AFFC03461A46019B1B8813444A
:109CE4009AB2019B1A80039B5A88019B1B881946D0
:109CF400029B0B4419461046FFF79CFC03461A4688
:109D0400019B1B8813449AB2019B1A8000231846B6
:109D140007B05DF804FB00B587B00390029101928F
:109D2400ADF80230039B9B8802330593019B1B888B
:109D34001A46059B13449A1CBDF802309A4201D975
:109D44000C2353E0059BFE2B01D90C234EE0059B0D
:109D5400DAB2019B1B881946029B0B440132D2B232
:109D64001A70019B1B8801339AB2019B1A80019BD4
:109D74001B881A46029B1344FF221A70019B1B88FE
:109D840001339AB2019B1A80039B1A88019B1B889A
:109D94001946029B0B4419461046FFF74BFC034639
:109DA4001A46019B1B8813449AB2019B1A80039B99
:109DB4009B88002B19D0039B9B68002B01D10723A0
:109DC40014E0019B1B881A46029B9818039B996810
:109DD400039B9B881A4608F0A9FA019B1A88039BE7
:109DE4009B8813449AB2019B1A800023184607B03B
:109DF4005DF804FB00B589B0039002910192ADF8BF
:109E04000230039B9B6A002B01D1072371E00023DE
:109E14008DF81F3065E0039B996A9DF81F20134657
:109E24005B0013449B000B440693069B9B88023300
:109E34000593059BFE2B01D90C235AE0059BDAB24E
:109E4400019B1B881946029B0B440132D2B21A7043
:109E5400019B1B8801339AB2019B1A80019B1B88CA
:109E64001A46029B134416221A70019B1B88013365
:109E74009AB2019B1A80069B1A88019B1B8819467B
:109E8400029B0B4419461046FFF7D4FB03461A46BF
:109E9400019B1B8813449AB2019B1A80069B9B88E2
:109EA400002B19D0069B9B68002B01D1072320E0CF
:109EB400019B1B881A46029B9818069B9968069B6F
:109EC4009B881A4608F032FA019B1A88069B9B88E5
:109ED40013449AB2019B1A809DF81F3001338DF808
:109EE4001F30039B93F82C309DF81F209A4292D385
:109EF4000023184609B05DF804FB00B595B0059041
:109F04000491039200231393039B1B88ADF84A30FA
:109F1400039B00221A80059B93F82D30002B0ED052
:109F2400BDF84A301A4603990498FFF799FB139039
:109F3400139B1193119B002B01D0119BD8E0059B1F
:109F44009B78002B0ED0BDF84A301A46039904982A
:109F5400FFF796FC1390139B1093109B002B01D0DA
:109F6400109BC5E0059BDB78002B10D0059BDB78AC
:109F740058B2BDF84A30039A0499FFF7D0FC139005
:109F8400139B0F930F9B002B01D00F9BB0E0059BFD
:109F94005B68002B11D0059B5B6893F90000BDF84A
:109FA4004A30039A0499FFF7F9FC1390139B0E931C
:109FB4000E9B002B01D00E9B9AE0059B1B89002B66
:109FC40014D0059B03F10800BDF84A300193039BAC
:109FD4000093049B06220221FFF7CAFD1390139BF2
:109FE4000D930D9B002B01D00D9B81E0059B1B8ADB
:109FF400002B14D0059B03F11000BDF84A300193E7
:10A00400039B0093049B07220321FFF7B1FD1390E8
:10A01400139B0C930C9B002B01D00C9B68E0059BBD
:10A024001B8B002B14D0059B03F11800BDF84A309C
:10A034000193039B0093049B15221421FFF798FDC1
:10A044001390139B0B930B9B002B01D00B9B4FE0A6
:10A05400059B1B6A002B0FD0059B186ABDF84A307C
:10A06400039A0499FFF7F7FD1390139B0A930A9B35
:10A07400002B01D00A9B3BE0059B5B6A002B0FD0B1
:10A08400059B586ABDF84A30039A0499FFF743FECA
:10A094001390139B0993099B002B01D0099B27E084
:10A0A400059B93F82C30002B0ED0BDF84A30039A50
:10A0B40004990598FFF79EFE1390139B0893089B41
:10A0C400002B01D0089B13E0059B1B78002B0ED0BE
:10A0D400BDF84A30039A04990598FFF72AFB1390B8
:10A0E400139B0793079B002B01D0079B00E0139B56
:10A0F400184615B05DF804FB84B00346ADF806308D
:10A104000023039316E00F49039A13469B0013445C
:10A114009B000B441B88BDF806209A4207D1039A82
:10A1240013469B0013449B00064A134406E0039B1A
:10A1340001330393039B002BE5D00023184604B09E
:10A14400704700BFEC24002082B001900B46ADF8AC
:10A154000230019BBDF802201A80019B00221A7272
:10A16400019B054903F10A020B4603CB10605160C1
:10A1740000BF02B0704700BF1C25002082B00190D0
:10A18400019B4FF6FF721A8000BF02B0704788B07F
:10A194000390029111461A460B46ADF80630134659
:10A1A400ADF80430039B9B881A46BDF8063013446F
:10A1B4000793039B9B881946039B9B88BDF8062045
:10A1C400934228BF13469BB2CB1A0693039BDB88AA
:10A1D4001A46BDF8043013440593039BDB881946E3
:10A1E400039BDB88BDF80420934228BF13469BB22F
:10A1F400CB1A0493029B5A88039B1B889A4205D36B
:10A20400029B5A88039B5B889A4201D900231CE075
:10A21400029B9B881A46069B934205D8029B9B8807
:10A224001A46079B934201D200230EE0029BDB886F
:10A234001A46049B934205D8029BDB881A46059B69
:10A24400934201D2002300E00123184608B070476E
:10A2540000B583B00190064B9B69002B03D0044BDF
:10A264009B690198984700BF03B05DF804FB00BFE9
:10A274000025002000B587B003460091ADF80630F4
:10A28400009B5B7A002B1AD1009B1B7A002B03D115
:10A29400164B5B68059302E0144B9B680593009B87
:10A2A4005B68BDF806200599184604F0CBF90490C4
:10A2B400049B002B16D00498FFF7CAFF12E0009B02
:10A2C40000221A72094B5B69002B0BD001238DF815
:10A2D4000C30BDF80630ADF80E30044B5B6903AAB0
:10A2E4001046984700BF07B05DF804FB0025002026
:10A2F40000B585B00190019BDB7B8DF80F30019B8D
:10A304009B88ADF80C309DF80F30012B2CD14FF603
:10A31400FF70FFF7F1FE0290029B002B03D1042093
:10A32400FFF796FF21E0BDF80C3019460298FFF7BD
:10A334000BFF029B03F10A00019B03F110014FF68E
:10A34400FF7340F2F312FFF722FF03461A46029B03
:10A354005A72074BDB89002B07D1BDF80C300299E8
:10A364001846FFF787FF00E000BF05B05DF804FB67
:10A374000025002000B587B00190019B9B88ADF8B3
:10A384001630BDF816301846FFF7B6FE0490049B4D
:10A39400002B0ED0049B5B68184604F0ABF90390C5
:10A3A400039B002B02D00398FFF752FF0498FFF79A
:10A3B400E5FE00BF07B05DF804FB000000B587B000
:10A3C4000190019B06330593059B1A88194BDB8981
:10A3D4009A422BD1059B5B89022B27D1019B9B8839
:10A3E400ADF81230BDF812301846FFF785FE039021
:10A3F400039B002B1AD0059B0C33184600F0FBF985
:10A404000346002B06D0BDF8123003991846FFF717
:10A4140031FF0BE0039B5B68184604F06BF9029074
:10A42400029B002B02D00298FFF712FF00BF07B077
:10A434005DF804FB0025002000B585B00190019B68
:10A444009B88ADF80E30BDF80E301846FFF754FE69
:10A454000290029B002B15D0029B03F10A00019B82
:10A4640003F108014FF6FF7340F2F312FFF78FFE7A
:10A4740003461A46029B5A72BDF80E3002991846DA
:10A48400FFF7F8FE00BF05B05DF804FB00B583B02C
:10A4940001900091019B1B88502B12D0502B18DC8B
:10A4A400122B12D0122B14DC102B02D0112B04D03F
:10A4B4000FE00198FFF71CFF0CE00198FFF75AFF2B
:10A4C40008E00198FFF77AFF04E00198FFF7B4FF72
:10A4D40000E000BF00BF03B05DF804FB30B58FB0EF
:10A4E4000190009100230293009B002B1AD00023BB
:10A4F4000D9314E06B460D99184604F04EFF034685
:10A50400002B09D0029B5A1C02920D9A92B25B0056
:10A5140038336B4423F82C2C0D9B01330D930D9B86
:10A52400132BE7D9019B1D4602AC0FCC0FC50FCCF2
:10A534000FC594E8070085E8070001980FB030BD07
:10A5440000B583B00346ADF80630BDF80630132BD2
:10A5540001D900230CE0BDF806301946064804F082
:10A56400EBFEBDF806301946044804F0E5FE01236D
:10A57400184603B05DF804FB2C2500202825002094
:10A5840000B585B00346ADF80630002303930DE013
:10A59400039B9B00094A13440433BDF8062011466B
:10A5A400184604F0E1FE039B01330393039B1D2B28
:10A5B400EED900BF00BF05B05DF804FB24250020E0
:10A5C40000B583B00346ADF80630BDF80630194631
:10A5D400034804F0C9FE00BF03B05DF804FB00BFEC
:10A5E4002C25002030B59BB0184B9B68DB43189397
:10A5F400164B5A6818AB1146184604F02DFF189AEA
:10A604006B4611461846FFF769FF0DAC6D460FCD3A
:10A614000FC40FCD0FC495E8070084E8070000239A
:10A6240019930BE0199B5B0068336B4433F8303C9F
:10A634001846FFF7A5FF199B013319930D9B199A2F
:10A644009A42EFD300BF00BF1BB030BD24250020C9
:10A6540000B583B001900B46ADF8023013468DF877
:10A6640001309DF80130002B06D0BDF802301946A8
:10A67400019804F061FE05E0BDF802301946019826
:10A6840004F072FE00BF03B05DF804FB00B585B0B2
:10A6940001900091019B9B88ADF80E30019B1B88B3
:10A6A400103B0A2B00F2888001A252F823F000BF6D
:10A6B400E1A602001DA70200BDA70200BDA702007B
:10A6C400BDA70200BDA70200BDA70200BDA70200EE
:10A6D400BDA7020087A7020029A70200FFF782FF97
:10A6E400BDF80E301846FFF72BFF034683F0010335
:10A6F400DBB2002B05D0324AF021042003F07AFBB0
:10A7040057E0019BDB7B022B53D1BDF80E30194679
:10A714002C4804F011FE4CE0BDF80E301846FFF74B
:10A724004FFF49E0019B1B7AC3F30313DBB28DF89F
:10A734000D309DF80D30032B8CBF01230023DAB2BA
:10A74400BDF80E3019462048FFF782FF9DF80D3002
:10A75400022B8CBF01230023DAB2BDF80E30194658
:10A764001A48FFF775FF9DF80D30012B8CBF0123AC
:10A774000023DAB2BDF80E3019461548FFF768FF1A
:10A784001AE0019B1B7A002B15D1019B5B7AC3F362
:10A79400C003DBB2002B14BF012300238DF80C305F
:10A7A4009DF80C20BDF80E3019460748FFF750FFFE
:10A7B40001E000BF00E000BF00BF05B05DF804FB8E
:10A7C400342A0300302500203C25002038250020B1
:10A7D4003425002082B00190019B1B781AB2019BA2
:10A7E40001331B781BB21B021BB213431BB29BB277
:10A7F400184602B0704700B585B001900198FFF784
:10A80400E9FF0346ADF80E30BDF80E3003F0010346
:10A81400002B14BF01230023DBB2184605B05DF8FA
:10A8240004FB000082B003468DF807309DF9073021
:10A83400002B13DB9DF8073003F01F0209499DF933
:10A8440007305B09012000FA02F2203341F823208B
:10A85400BFF34F8F00BFBFF36F8F00BF00BF02B0C5
:10A86400704700BF00E100E0044BD3F80034002B34
:10A8740014BF01230023DBB21846704700000140D7
:10A8840008B507F0D1F9034683F00103DBB2002BCE
:10A8940003D109497B2004F037FCFFF7E5FF0346A9
:10A8A40083F00103DBB2002B04D000F04FFB034B19
:10A8B40000229A7000BF08BD182C0300A0250020B8
:10A8C40000B583B000230193184B1B78002B02D0F2
:10A8D400852301931CE0154B00229A60134B002240
:10A8E4005A60124B00221A61104B0022DA601048A1
:10A8F40000F0F2FA019007F097F9034683F00103A0
:10A90400DBB2002B01D000F00DFB084B01221A70C2
:10A91400FFF7AAFF0346002B02D0044B01229A70D2
:10A92400019B184603B05DF804FB00BFA02500207E
:10A934000DAA020084B00190019B1B680393039B42
:10A94400002B03D0039B1A68019B1A60039B1846D3
:10A9540004B0704700B583B0164B1B78002B04D1AC
:10A96400154940F2171004F0CFFB124BDB68002BA3
:10A9740004D111494FF48C7004F0C6FB00238DF808
:10A9840007300DF10703184603F084FF094BDB6819
:10A99400013B084AD360074BDB68002B01D1FFF76A
:10A9A4006FFF9DF80730184603F08AFF00BF03B01D
:10A9B4005DF804FBA0250020182C030000B585B029
:10A9C40003468DF807309DF80730002B02D10C4B5D
:10A9D400039301E00B4B03930398FFF7ABFF029043
:10A9E400029B002B06D0029B5B689DF80720104653
:10A9F4009847F1E700BF00BF05B05DF804FB00BF56
:10AA0400A8250020B025002000B583B003468DF8AA
:10AA140007309DF80730002B05D10A4B01225A70EC
:10AA24000020FFF7CBFF9DF80730012B05D1054B24
:10AA340001229A700120FFF7C1FF00BF03B05DF847
:10AA440004FB00BFA025002000B583B00190009155
:10AA5400019B002B05D1054B01225A700020FFF702
:10AA6400ADFF00BF03B05DF804FB00BFA0250020CC
:10AA740000B585B0034600918DF807309DF8073086
:10AA8400032B29D0032B35DC002B02D0012B04D05F
:10AA940030E00020FFF7C6FE2DE000238DF80F30D4
:10AAA4000DF10F03184603F0F5FE154B1B7883F0E8
:10AAB4000103DBB2002B01D0FFF702FF104BDB6870
:10AAC40001330F4AD3600E4B01229A709DF80F3068
:10AAD400184603F0F5FE0EE0094B1B78002B04D159
:10AAE400084940F2522004F00FFB00F01BFAFFF774
:10AAF40031FF00E000BF00BF05B05DF804FB00BFFC
:10AB0400A0250020182C030000B589B00190009105
:10AB1400009B0793019B1B788DF80C30019B5B68AD
:10AB24000493019B9B68DBB28DF81430019BDB68B6
:10AB34000693074A079B52F823300649079A51F8AF
:10AB4400221003AA1046984700BF09B05DF804FB21
:10AB5400B4250020BC25002000B589B001900091E7
:10AB6400009B0793019B1B788DF80C30019B5B685D
:10AB74000493019B9B68DBB28DF81430019BDB6866
:10AB84000693074A079B52F823300649079A51F85F
:10AB9400221003AA1046984700BF09B05DF804FBD1
:10ABA400B4250020BC25002030B58FB0039002915D
:10ABB4000192039B1B780C932C490C9B019A41F83E
:10ABC4002320029B1A692A490C9B41F823200C9BE1
:10ABD400012B07D1029B5B7F002B03D125497620F3
:10ABE40004F092FA029B5B7F1946234A0C9B1344A0
:10ABF4000A461A70029B04AC1D460FCD0FC495E89B
:10AC04000F0084E80F000C9B089300230D93039B13
:10AC14001B781A46184B9B5C002B0DD0039B181D08
:10AC2400019B002B01D0154A00E0002204AB194619
:10AC340002F00EFB0D9014E0039B1B781A460E4B9A
:10AC44009B5C002B0DD1039B03F10C00019B002B9B
:10AC540001D00B4A00E0002204AB194601F070FC5D
:10AC64000D900D9B18460FB030BD00BFB4250020D9
:10AC7400BC2500209C2C0300C42500200DAB020041
:10AC84005DAB020082B003468DF807309DF90730B2
:10AC9400002B0CDB9DF8073003F01F0205499DF9DA
:10ACA40007305B09012000FA02F241F8232000BFBB
:10ACB40002B0704700E100E082B0034600918DF8D5
:10ACC40007309DF90730002B0ADB009BDAB20C49F0
:10ACD4009DF907305201D2B20B4483F800230BE0F4
:10ACE400009BDAB207499DF8073003F00F03043BD9
:10ACF4005201D2B20B441A7600BF02B0704700BFB3
:10AD040000E100E000ED00E082B00190019B1B0B2C
:10AD14005BB2184602B0704700B583B003460A46DA
:10AD24008DF8073013468DF806309DF80630012B58
:10AD340003D99DF80630032B0BD99DF80630042B5C
:10AD440003D99DF80630072B03D908496B2004F07A
:10AD5400DBF99DF806209DF9073011461846FFF7E8
:10AD6400ABFF00BF03B05DF804FB00BF202D030060
:10AD740000B583B003468DF807309DF907301846B7
:10AD8400FFF780FF00BF03B05DF804FB82B0034609
:10AD94008DF807300F4A9DF90730002B00DA1F3376
:10ADA4005B115BB252F823209DF90730594203F03E
:10ADB4001F0301F01F0158BF4B425BB222FA03F399
:10ADC40003F00103002B14BF01230023DBB2184658
:10ADD40002B0704700E100E082B001904FF0804281
:10ADE400019BC2F8083300BF02B0704782B003462B
:10ADF4008DF807309DF8073003F1804301221A6073
:10AE040000BF02B0704784B00346ADF80630BDF809
:10AE1400063003F1804300221A60BDF8063003F1C6
:10AE240080431B680393039B00BF04B0704782B048
:10AE34000346ADF80630BDF8063003F180431B68C5
:10AE4400002B14BF01230023DBB2184602B0704765
:10AE540082B001904FF08042019BC2F8183500BFC8
:10AE640002B070474FF08043D3F818341B0C03F042
:10AE74000103002B14BF01230023DBB218467047E3
:10AE840000B583B006238DF807304FF08040FFF7FC
:10AE94003BFF03461846FFF779FF034683F001039F
:10AEA400DBB2002B13D04FF08040FFF72DFF034699
:10AEB4001A469DF8073019461046FFF72DFF4FF04C
:10AEC4008040FFF721FF03461846FFF751FF00BFFC
:10AED40003B05DF804FB000000B585B00190019B50
:10AEE400002B03D10D49A42004F00EF90023039391
:10AEF4000B4B1B79002B02D08523039308E0084AEF
:10AF0400019B1360064B01221A71054B00225A71F2
:10AF1400039B184605B05DF804FB00BF582D0300E1
:10AF2400C825002008B5074B1B79002B03D106491F
:10AF3400BD2004F0E9F8FFF7A3FF0120FFF788FF25
:10AF440000BF08BDC8250020582D030008B50D4BCF
:10AF54001B79002B03D10C49F72004F0D5F802200B
:10AF6400FFF73AFF4FF48270FFF74DFF0C20FFF715
:10AF74003DFF00BFFFF776FF0346002BFAD100BF69
:10AF840000BF08BDC8250020582D030008B54FF4A4
:10AF94008070FFF74CFF0346002B14D04FF48070F1
:10AFA400FFF731FF0120FFF717FF114B5B7983F0A7
:10AFB4000103DBB2002B06D00D4B01225A710C4B5E
:10AFC4001B68002098474FF48270FFF730FF034658
:10AFD400002B0AD04FF48270FFF715FF0220FFF711
:10AFE400FBFE034B1B680120984700BF08BD00BF50
:10AFF400C825002082B003468DF807309DF907303C
:10B00400002B0CDB9DF8073003F01F0205499DF966
:10B0140007305B09012000FA02F241F8232000BF47
:10B0240002B0704700E100E082B0034600918DF861
:10B0340007309DF90730002B0ADB009BDAB20C497C
:10B044009DF907305201D2B20B4483F800230BE080
:10B05400009BDAB207499DF8073003F00F03043B65
:10B064005201D2B20B441A7600BF02B0704700BF3F
:10B0740000E100E000ED00E082B00190019B1B0BB9
:10B084005BB2184602B0704700B583B003460A4667
:10B094008DF8073013468DF806309DF80630012BE5
:10B0A40003D99DF80630032B0BD99DF80630042BE9
:10B0B40003D99DF80630072B03D908496B2004F007
:10B0C40023F89DF806209DF9073011461846FFF72E
:10B0D400ABFF00BF03B05DF804FB00BFDC2D030031
:10B0E40000B583B003468DF807309DF90730184644
:10B0F400FFF780FF00BF03B05DF804FB00B583B029
:10B104000346ADF80630BDF80630184600F026F8C0
:10B1140003461B68012B0CBF01230023DBB2184636
:10B1240003B05DF804FB00B585B00346ADF8063006
:10B13400BDF80630184600F011F803461A460023FD
:10B144001360BDF80630184600F008F803461B6883
:10B154000393039B00BF05B05DF804FB82B0034674
:10B16400ADF80630BDF8063003F1804303F5C04363
:10B17400184602B07047000082B00190034A019B58
:10B18400C2F8043300BF02B0704700BF0060004043
:10B1940082B00190034BD3F80423019B134018465B
:10B1A40002B070470060004082B00190084A019BE1
:10B1B40003F5A27352F82330054943F00102019BC1
:10B1C40003F5A27341F8232000BF02B0704700BF0B
:10B1D4000060004084B00390029113468DF807305C
:10B1E400144A039B03F5A27352F82330114923F444
:10B1F4004F3323F44073039A02F5A27241F82230CC
:10B204000C4A039B03F5A27352F82320029B1B02F2
:10B2140003F47C519DF807301B0403F440330B43C3
:10B2240004491A43039B03F5A27341F8232000BF8A
:10B2340004B070470060004082B00190054A019B51
:10B2440003F5A27352F823301B0A03F03F03184698
:10B2540002B070470060004082B00190064A019B32
:10B2640003F5A27352F823301B0C03F00303DBB283
:10B27400184602B0704700BF0060004000B583B0BC
:10B284000190019B1B68184600F028F90346002B27
:10B2940004D10B494FF4F67003F036FF019B1B6891
:10B2A4001F2B02D84FF0A04306E0019B1B6803F05C
:10B2B4001F02019B1A60034B184603B05DF804FBA0
:10B2C4000C2E03000003005000B585B00190084621
:10B2D40011461A4603468DF803300B468DF80230AA
:10B2E40013468DF8013001AB1846FFF7C7FF0390F2
:10B2F4009DF803209DF802305B001A439DF801304D
:10B304009B001A439DF818301B0242EA03019DF882
:10B314001C301B04019A1943039B02F5E07243F8A5
:10B32400221000BF05B05DF804FB00B585B00390A2
:10B334000B468DF80B309DF80B3000220192002251
:10B344000092002200210398FFF7BEFF00BF05B062
:10B354005DF804FB00B585B0019001AB1846FFF71A
:10B364008DFF0390019A039B02F5E07253F822309B
:10B3740023F002030293019A039B02F5E0720299FF
:10B3840043F8221000BF05B05DF804FB00B585B09A
:10B3940001900B468DF8033001AB1846FFF76EFFA2
:10B3A4000390019A039B02F5E07253F82230019A4C
:10B3B40023F44031039B02F5E07243F82210019A12
:10B3C400039B02F5E07253F822109DF803301B042E
:10B3D400019A1943039B02F5E07243F8221000BF5F
:10B3E40005B05DF804FB00B585B0019001AB1846CB
:10B3F400FFF744FF0390039800F020F80246019BF6
:10B4040022FA03F303F00103184605B05DF804FBC8
:10B4140000B585B0019001AB1846FFF72FFF0390EC
:10B42400019A039B02F5E07253F822301B0C03F0DF
:10B434000303DBB2184605B05DF804FB82B001904B
:10B44400019BD3F81035184602B0704788B00390BA
:10B4540002910192164A05AB92E8030083E80300C7
:10B46400039B079319E0079B9B0020336B4453F81D
:10B474000C3CD3F82025019B1A60079B9B002033CA
:10B484006B4453F80C3C019A1268C3F82025019BC5
:10B4940004330193079B01330793039A029B1344DC
:10B4A400079A9A42DFD300BF00BF08B0704700BFBD
:10B4B4003C2E030000B585B0019001AB1846FFF7A0
:10B4C400DDFE0390019B012202FA03F31A46039B5B
:10B4D400C3F8202500BF05B05DF804FB84B00190DB
:10B4E400019B5B09029300230393029B002B03D06F
:10B4F400029B012B04D007E04FF0FF33039303E0DA
:10B504004FF6FF73039300BF019B03F01F030193E6
:10B51400039A019B22FA03F303F00103002B14BFE7
:10B5240001230023DBB2184604B0704784B00190B5
:10B534000091009B0393019BDB080293019B03F0A2
:10B54400070301930122019B02FA03F30399029A70
:10B554000A4412781340184604B0704784B001902E
:10B564000091009B0393019BDB080293019B03F072
:10B5740007030193039A029B13441B785AB20121D7
:10B58400019B01FA03F35BB2134359B2039A029B82
:10B594001344CAB21A7000BF04B0704782B001905D
:10B5A4000C4A019B1344303393F90030002B09DB20
:10B5B400084A019B1344303393F90030072B01DC14
:10B5C400012300E0002303F00103DBB2184602B0BC
:10B5D400704700BFD025002082B00190064A019B2D
:10B5E4001344303393F90030072BCCBF01230023DD
:10B5F400DBB2184602B07047D025002082B001901B
:10B60400064A019B1344303393F90030DB43DBB229
:10B61400DB09DBB2184602B0704700BFD02500201A
:10B6240084B00390029101928DF80330029B59B2C9
:10B634000E4A039B134430330A461A700B49029B8B
:10B64400019A41F823209DF8033083F00103DBB213
:10B65400002B08D0029B083B039A51B2034A1344BF
:10B664000A4683F8602000BF04B07047D02500204C
:10B6740082B00190044A019B13443033FF221A70B4
:10B6840000BF02B0704700BFD025002000B583B0D2
:10B69400019004490198FFF761FF00BF03B05DF812
:10B6A40004FB00BF3426002082B00190044A019BB1
:10B6B4001344303393F90030184602B0704700BF8A
:10B6C400D025002082B00190034A019B52F8233018
:10B6D400184602B0704700BFD025002084B0019006
:10B6E400074A019B1344603393F900308DF80F30FF
:10B6F4009DF80F3023F0C003184604B0704700BF14
:10B70400D025002084B00190074A019B1344603384
:10B7140093F900308DF80F309DF80F309B09DBB2A0
:10B72400184604B0704700BFD025002000B589B08A
:10B734000390029113468DF80730FF238DF81F30D4
:10B744009DF80730002B01D0002300E00823059367
:10B754009DF80730002B01D0082300E00C2304934C
:10B76400059B069314E00F4A069B52F82330B3F16D
:10B77400FF3F0AD19DF80730029A06990398FFF714
:10B784004FFF069B8DF81F3006E0069B013306939E
:10B79400069A049B9A42E6D39DF91F30184609B0D5
:10B7A4005DF804FBD025002082B003468DF80730F5
:10B7B4009DF80730094A4FF0FF3142F823109DF8F5
:10B7C4000730072B07D99DF80730083B034A134479
:10B7D400FF2283F8602000BF02B07047D02500200C
:10B7E40000B583B02D4B93F86A30002B03D00823A7
:10B7F4000093009B4EE000238DF8073011E09DF884
:10B8040007301846FFF76AFE0346002B04D09DF864
:10B8140007301846FFF72CFF9DF8073001338DF8E9
:10B8240007309DF807302F2BE9D900238DF8073016
:10B8340009E09DF807301846FFF7B6FF9DF807307A
:10B8440001338DF807309DF807300B2BF1D9062210
:10B854000021134806F09CFD1248FFF70DFC034637
:10B8640006211846FFF710FC0E48FFF705FC0346B7
:10B874001846FFF735FC4FF4BE70FFF754FC4FF049
:10B884000040FFF779FC054B012283F86A2000236E
:10B894000093009B184603B05DF804FBD0250020FC
:10B8A4003426002000600040044B93F86A30002BDB
:10B8B40014BF01230023DBB218467047D0250020B3
:10B8C40000B587B00390029101920398FFF706FE3A
:10B8D4000346002B04D137494FF40C7003F014FCD9
:10B8E400002305930398FFF789FE0346002B02D03B
:10B8F4000823059358E0029B9B78C3F34003DBB213
:10B904001A4601990398FFF711FF03468DF8133087
:10B914009DF91330B3F1FF3F44D0029B9B78C3F3EE
:10B924008003DBB283F00103DBB2002B13D0029B54
:10B934009B7803F00103DBB2002B03D00398FFF7DD
:10B9440009FD05E0029B5B7819460398FFF7EDFCBF
:10B954000398FFF79BFE029B9B7803F00203DBB284
:10B96400002B08D09DF91300029B1B781A460399FB
:10B97400FFF730FC18E09DF91330083B0E4A1344DE
:10B9840093F96010029B1B785BB29B015AB29DF93C
:10B994001330083B0A4351B2074A13440A4683F85A
:10B9A400602001E004230593059B184607B05DF869
:10B9B40004FB00BF4C2E0300D025002000B589B045
:10B9C40001900B468DF803300198FFF787FD03467D
:10B9D400002B04D13A494FF4187003F095FB0198F9
:10B9E400FFF70CFE0346002B04D1354940F26120D9
:10B9F40003F08AFB0198FFF7EFFD0346002B2AD0E2
:10BA04000198FFF751FE0346083B1846FFF77AFEFC
:10BA140003468DF80F309DF80F30032B0BD101989E
:10BA2400FFF7E1FC0346002B01D0032300E00223CF
:10BA34008DF81F3008E09DF80F30012B01D102234F
:10BA440000E003238DF81F309DF81F30194601983C
:10BA5400FFF79CFC30E00198FFF7A0FD0346002BA4
:10BA64002AD00198FFF720FE03460693069B9BB25B
:10BA740040339BB29B00ADF81630069B1846FFF787
:10BA840093FBBDF816301846FFF74DFB9DF80330C5
:10BA9400002B11D00198FFF707FE03461846FFF765
:10BAA40011FE0490049B002B06D00122069B02FA8F
:10BAB40003F31846FFF760FB00BF09B05DF804FB11
:10BAC4004C2E030000B583B001900198FFF706FDEA
:10BAD4000346002B04D1094940F2B22003F014FBC1
:10BAE4000198FFF780FC0346002B14BF01230023B9
:10BAF400DBB2184603B05DF804FB00BF4C2E030014
:10BB040000B585B00190019A02210020FFF79EFC48
:10BB1400002303930BE0039B9B00019A13441B68CF
:10BB2400002B01D0012306E0039B01330393039B05
:10BB3400012BF0D90023184605B05DF804FB000082
:10BB440000B587B00190002305935BE0344A059B60
:10BB54001344603393F90030B3F1FF3F4ED005989E
:10BB6400FFF7BCFD049001990498FFF7DFFC03463E
:10BB7400002B44D00598FFF7C5FD03468DF80F3020
:10BB84000498FFF745FC03468DF80E309DF80E30FF
:10BB9400022B01D1032300E002238DF80D309DF820
:10BBA4000D3019460498FFF7F1FB0498FFF782FC67
:10BBB4000498FFF779FD03461846FFF783FD0290CA
:10BBC400029B002B1BD09DF80F30032B0FD09DF848
:10BBD4000E30022B03D19DF80F30012B07D09DF8B6
:10BBE4000E30032B0BD19DF80F30022B07D19DF89B
:10BBF4000F20029B11460498984700E000BF059B64
:10BC040001330593059B032BA0D90198FFF778FF17
:10BC14000346002B97D100BF00BF07B05DF804FBBB
:10BC2400D025002000B58BB00023089301AB00227F
:10BC34001A605A604FF48073ADF81A3001230993E7
:10BC44000023079321E0BDF81A301846FFF756FA8F
:10BC54000346002B0ED00998FFF79AFA0346002BEF
:10BC640008D0BDF81A301846FFF75DFA089A099B08
:10BC740013430893099B5B000993BDF81A300433FE
:10BC8400ADF81A30079B01330793079B072BDAD9CA
:10BC94004FF4BE70FFF732FA0346002B0DD04FF479
:10BCA400BE70FFF740FA089B43F00043089301ABD2
:10BCB4001A4602210020FFF7C9FB089BDBB2002BC8
:10BCC40029D0012309930023079321E0099A089BB3
:10BCD4001340002B16D00798FFF7AEFA059007988B
:10BCE400FFF7BAFA03468DF813300798FFF7EAFC1A
:10BCF4000390039B002B05D09DF81320039B114652
:10BD040005989847099B5B000993079B01330793A8
:10BD1400079B072BDAD9089B002B03DA01AB1846E3
:10BD2400FFF70EFF00BF0BB05DF804FB08B5064B30
:10BD34001B68002B03D10549512003F0E5F9024BA0
:10BD44001B68984708BD00BF3C260020D42E030082
:10BD540082B00190019B044A934201D1034B00E05D
:10BD64000023184602B07047002000403C26002003
:10BD740000B587B001900091019B002B03D11C49B1
:10BD8400772003F0C1F90198FFF7E2FF0590059BC6
:10BD9400002B25D000238DF8133000238DF80B30B1
:10BDA4000DF10B03184602F075FD059B1B79002B62
:10BDB40003D001238DF8133005E0059B009A1A6027
:10BDC400059B01221A719DF80B30184602F078FD8C
:10BDD4009DF81330002B03D011230393039B02E03F
:10BDE40000230393039B184607B05DF804FB00BFD0
:10BDF400D42E030000B585B00190019B002B03D124
:10BE04000A499B2003F080F90198FFF7A1FF0390F2
:10BE1400039B002B05D0039B00221A60039B002286
:10BE24001A7100BF05B05DF804FB00BFD42E0300F7
:10BE340082B003468DF807309DF90730002B0CDBE8
:10BE44009DF8073003F01F0205499DF907305B098F
:10BE5400012000FA02F241F8232000BF02B070472B
:10BE640000E100E082B003468DF807309DF9073009
:10BE7400002B13DB9DF8073003F01F0209499DF9DD
:10BE840007305B09012000FA02F2203341F8232035
:10BE9400BFF34F8F00BFBFF36F8F00BF00BF02B06F
:10BEA400704700BF00E100E082B0034600918DF8C6
:10BEB40007309DF90730002B0ADB009BDAB20C49EE
:10BEC4009DF907305201D2B20B4483F800230BE0F2
:10BED400009BDAB207499DF8073003F00F03043BD7
:10BEE4005201D2B20B441A7600BF02B0704700BFB1
:10BEF40000E100E000ED00E082B00190019B1B0B2B
:10BF04005BB2184602B0704700B583B003460A46D8
:10BF14008DF8073013468DF806309DF80630012B56
:10BF240003D99DF80630032B0BD99DF80630042B5A
:10BF340003D99DF80630072B03D908496B2003F079
:10BF4400E3F89DF806209DF9073011461846FFF7DF
:10BF5400ABFF00BF03B05DF804FB00BF582F030024
:10BF640000B583B003468DF807309DF907301846B5
:10BF7400FFF75EFF00BF03B05DF804FB00B583B0BC
:10BF840003468DF807309DF907301846FFF76AFF1E
:10BF940000BF03B05DF804FB84B001900B46ADF81C
:10BFA4000230BDF80230019A134400221A60BDF831
:10BFB4000230019A13441B680393039B00BF04B02F
:10BFC400704782B001900B46ADF80230BDF80230E4
:10BFD400019A13441B68002B14BF01230023DBB216
:10BFE400184602B0704782B001900091019B009AFC
:10BFF400C3F8042300BF02B0704782B001900091DF
:10C00400019BD3F80423009B1340002B14BF01238E
:10C014000023DBB2184602B0704782B00190009151
:10C02400019B009AC3F8082300BF02B0704784B094
:10C034000190019BD3F880340393019B039AC3F8C6
:10C044008024039B184604B0704782B00190019B82
:10C054000422C3F8002500BF02B0704782B00190EB
:10C06400019B0022C3F8002500BF02B0704784B0D2
:10C07400039002910192039B019AC3F81425039B38
:10C08400029AC3F80C2500BF04B0704700B583B012
:10C0940001904FF0FF324FF0FF310198FFF7E7FFB7
:10C0A40000BF03B05DF804FB82B00190019BD3F89C
:10C0B4000C35184602B0704782B00190019BD3F84A
:10C0C4001435184602B0704782B00190019BD3F832
:10C0D4000835184602B0704782B00190019BD3F82E
:10C0E4001035184602B0704784B003900291019253
:10C0F400039B029AC3F80825039B019AC3F81025F1
:10C1040000BF04B0704700B583B001904FF0FF3218
:10C114004FF0FF310198FFF7E7FF00BF03B05DF870
:10C1240004FB82B00190019BD3F81835DBB21846AA
:10C1340002B0704782B001900B468DF803309DF831
:10C144000320019BC3F81C2500BF02B0704782B0D6
:10C1540001900B468DF803309DF80330019A134487
:10C1640001221A6000BF02B0704782B001900B46F2
:10C174008DF8033013468DF802309DF803209DF8A6
:10C1840002301343DBB21A46019BC3F86C2500BF8F
:10C1940002B0704782B001900091019B009AC3F8ED
:10C1A400242500BF02B0704700B583B00190019B05
:10C1B4001B68184600F0A4F80346002B04D10B4971
:10C1C4004FF4F67002F0A0FF019B1B681F2B02D8EE
:10C1D4004FF0A04306E0019B1B6803F01F02019B84
:10C1E4001A60034B184603B05DF804FB882F030064
:10C1F4000003005000B585B00190084611461A4668
:10C2040003468DF803300B468DF8023013468DF843
:10C21400013001AB1846FFF7C7FF03909DF80320D8
:10C224009DF802305B001A439DF801309B001A43CD
:10C234009DF818301B0242EA03019DF81C301B04D0
:10C24400019A1943039B02F5E07243F8221000BFE0
:10C2540005B05DF804FB00B585B00390002301939D
:10C26400002300930023012201210398FFF7C2FF5A
:10C2740000BF05B05DF804FB00B585B003900B4624
:10C284008DF80B309DF80B300022019200220092B1
:10C29400002200210398FFF7ADFF00BF05B05DF851
:10C2A40004FB00B585B003900023019300230093A1
:10C2B4000023012200210398FFF79CFF00BF05B073
:10C2C4005DF804FB00B585B0019001AB1846FFF79B
:10C2D4006BFF0390019B012202FA03F319460398B2
:10C2E40000F004F800BF05B05DF804FB82B00190D3
:10C2F4000091019B009AC3F8082500BF02B0704763
:10C3040084B00190019B5B09029300230393029B79
:10C31400002B03D0029B012B04D007E04FF0FF3326
:10C32400039303E04FF6FF73039300BF019B03F0F5
:10C334001F030193039A019B22FA03F303F0010301
:10C34400002B14BF01230023DBB2184604B070474E
:10C3540000B583B001900091009B1B68B3F1FF3FCF
:10C3640009D0009B1B681846FFF7ACFF009B1B68B5
:10C374001846FFF770FF009B5B68B3F1FF3F05D0E1
:10C38400009B5B6800211846FFF776FF019B1A6843
:10C39400009B9B6919461046FFF7FCFE019B186839
:10C3A400009B597D009B1B7D1A46FFF7DEFE019B17
:10C3B4001868009B1968009B5B681A46FFF757FED4
:10C3C400009B1B7D012B22D1009B9B68B3F1FF3F97
:10C3D40005D0009B9B6800211846FFF74DFF009B8A
:10C3E400DB68B3F1FF3F09D0009BDB681846FFF719
:10C3F40069FF009BDB681846FFF72DFF019B186857
:10C40400009BD968009B9B681A46FFF76DFE00BF2E
:10C4140003B05DF804FB000000B583B001900B4647
:10C424008DF80330019B1B684FF48E711846FFF79B
:10C43400B3FD019B1B684FF4A2711846FFF7ACFDD6
:10C44400019B1B680E491846FFF7CDFD019B1B6835
:10C454001846FFF751FD03461A469DF80330194666
:10C464001046FFF751FD019B1B681846FFF744FD7A
:10C4740003461846FFF774FD00BF03B05DF804FBE4
:10C484008000020000B583B00190019B1B6808493D
:10C494001846FFF7C2FD019B1B681846FFF72CFDE9
:10C4A40003461846FFF76AFD00BF03B05DF804FBBE
:10C4B4008402020000B587B00190019B1B681846F6
:10C4C400FFF7F2FD0590019B1B681846FFF7F4FD8A
:10C4D4000490019B1B681846FFF7F6FD0390019B2F
:10C4E4001B681846FFF7F8FD0290019B1B6818466D
:10C4F400FFF7CCFD019B1B681846FFF704FE059B64
:10C50400B3F1FF3F02D00598FFF7CBFE049BB3F1D4
:10C51400FF3F02D00498FFF7C4FE029BB3F1FF3F34
:10C5240002D00298FFF7BDFE039BB3F1FF3F02D098
:10C534000398FFF7B6FE00BF07B05DF804FB0000E8
:10C5440000B587B0039002910192029B002B03D1A6
:10C554002D49AA2002F0D8FD039B1B791A462C23EF
:10C5640002FB03F3294A1344049300230593049B19
:10C5740093F82A30002B03D008230593059B3EE053
:10C58400039B1A68039B1B791946214B53F82130EE
:10C5940019461046FFF7ECFB0346002B03D011238A
:10C5A4000593059B2BE002990398FFF7D1FE049BAA
:10C5B400019A5A60029B1A69049B1A60049B5B6887
:10C5C400002B05D0029B1B7F19460398FFF724FF1D
:10C5D400039B1B681846FFF738FD049B00229A61F1
:10C5E400049B0022DA61049B002283F82920049B27
:10C5F40000225A61049B012283F82A20059B1846D5
:10C6040007B05DF804FB00BFC02F030044260020E0
:10C614004030030000B585B00190019B1B791A4698
:10C624002C2302FB03F3114A13440393019B1B685D
:10C634001846FFF713FD039B5B68002B02D001989B
:10C64400FFF720FF0198FFF735FF019B1B68184691
:10C65400FFF7D0FB039B002283F82A20039B0022D0
:10C664005A6000BF05B05DF804FB00BF44260020FB
:10C6740000B585B0019000914FF48E710198FFF7D9
:10C684008BFC009B9A68009B1B6A13441B788DF8F3
:10C694000F30009B1B6A5A1C009B1A629DF80F30D6
:10C6A40019460198FFF746FD00BF05B05DF804FB8D
:10C6B40000B585B001900091009B5B69039316E07F
:10C6C400009B93F82830DBB2002B01D0002314E048
:10C6D4004FF48E710198FFF774FC034683F0010355
:10C6E400DBB2002BECD100990198FFF7C1FF009B4E
:10C6F4001B6A039A9A42EBD80123184605B05DF8E9
:10C7040004FB000000B587B0039002910192039BE3
:10C714001B791A462C2302FB03F33C4A134404936B
:10C72400049B93F82A30012B04D039494FF48C70C0
:10C7340002F0EAFC029B002B04D1354940F21910A7
:10C7440002F0E2FC019B002B04D131494FF48D70BF
:10C7540002F0DAFC039800F05DF80346002B03D0E6
:10C7640011230593059B4CE0049B019A5A61049B99
:10C77400029A9A60049B00221A62049B002283F8A6
:10C78400282000230593039B1B684FF48E711846E1
:10C79400FFF702FC039B1B6808211846FFF7D7FC30
:10C7A400039B1B6804991846FFF762FF049B5B68B0
:10C7B400002B25D1039B1B6804991846FFF778FFCB
:10C7C400034683F00103DBB2002B02D00F23059351
:10C7D40013E000BF039B1B684FF48E711846FFF7EC
:10C7E400F0FB034683F00103DBB2002BF2D1039B81
:10C7F4001B680C211846FFF7AAFC049B00225A610F
:10C80400059B184607B05DF804FB00BF44260020D2
:10C81400C02F030082B00190019B1B791946074A7F
:10C824002C2301FB03F3134414331B68002B14BFA4
:10C8340001230023DBB2184602B0704744260020CF
:10C8440010B582B001900091009B9B69002B08D128
:10C854004FF484710198FFF79FFB0198FFF761FC87
:10C8640013E04FF484710198FFF796FB009BDA689C
:10C87400009B5B6AD4180198FFF753FC03462370AE
:10C88400009B5B6A5A1C009B5A6202B010BD00B543
:10C8940089B003900291019201238DF81030029B1C
:10C8A4000693019B0593039B5B68039A116804AA92
:10C8B4001046984700BF09B05DF804FB00B587B087
:10C8C4000190009100238DF80830009B0493019B94
:10C8D4009B680393019B00225A61019B5B68019A48
:10C8E400116802AA1046984700BF07B05DF804FB20
:10C8F40000B58BB0019000914FF400710198FFF7DF
:10C904007CFB0346002B39D04FF492710198FFF75A
:10C9140058FB0346002B31D04FF492710198FFF776
:10C924003BFB4FF401710198FFF777FB009B93F8F1
:10C93400293083F00103DBB2002B03D004210198DA
:10C94400FFF705FC02238DF80C300198FFF76FFB0D
:10C9540003460693009B9B690593009BDB68049345
:10C96400009B00229A61009B0022DA61009B5B68B5
:10C97400009A116803AA1046984752E004210198CE
:10C98400FFF73BFB0346002B4BD04FF48471019817
:10C99400FFF717FB0346002B43D000990198FFF7DC
:10C9A4004FFF009B9A69009B5B6A9A4239D1009BB6
:10C9B400DB69002B19D0009BDB680993009B5B6A41
:10C9C4000893009BDA69009B9A61009B1A69009B9B
:10C9D400DA60009B0022DA61009B00225A62099A05
:10C9E40008990098FFF753FF1BE0009B93F8293048
:10C9F40083F00103DBB2002B03D004210198FFF77D
:10CA0400A6FB4FF401710198FFF707FB009B00227E
:10CA14009A61009B596A009BDB681A460098FFF7ED
:10CA240036FF4FF48E710198FFF7CBFA0346002BC3
:10CA340024D0009B5B690793009B1B6A079A9A4268
:10CA44000DD9009B93F82830DBB283F00103DBB2ED
:10CA5400002B04D000990198FFF70AFE0EE04FF472
:10CA64008E710198FFF798FA009B5B69002B05D043
:10CA7400009B5B6919460098FFF720FF4FF4A271F1
:10CA84000198FFF79EFA0346002B1CD04FF4A271C5
:10CA94000198FFF781FA009B93F82930002B03D00B
:10CAA40000210198FFF753FB009B9B69002B0AD0E0
:10CAB400009B00229A61009B596A009BDB681A461E
:10CAC4000098FFF7E4FE00BF0BB05DF804FB000024
